:020000040800F2
:100000000000022005060008F5070008F9070008AF
:10001000FD070008010800080508000800000000AE
:1000200000000000000000000000000009080008B7
:100030000D0800080000000011080008150800085D
:100040005506000855060008550600085506000824
:100050005506000855060008550600085506000814
:100060005506000855060008550600085506000804
:1000700055060008550600085506000855060008F4
:100080005506000855060008550600080000000047
:1000900000000000000000000000000055060008FD
:1000A00055060008550600085506000855060008C4
:1000B00055060008550600085506000855060008B4
:1000C00055060008550600085506000855060008A4
:1000D00055060008550600085506000800000000F7
:1000E00055060008550600085506000800000000E7
:1000F000000000000000000000000000550600089D
:1001000000000000550600085506000855060008C6
:1001100000000000000000000000000000000000DF
:100120005506000855060008550600085506000843
:10013000550600080000000000000000000000005C
:10014000000000000000000000000000550600084C
:100150005506000855060008550600085506000813
:1001600055060008550600080000000000000000C9
:10017000000000000000000000000000000000007F
:10018000000000005506000800000000000000000C
:080190005506000855060008A1
:1001980010B5054C237833B9044B13B10448AFF3B9
:1001A80000800123237010BD3804002000000000E7
:1001B8003011000808B5034B1BB103490348AFF3DE
:1001C800008008BD000000003C0400203011000839
:1001D80053B94AB9002908BF00281CBF4FF0FF31A6
:1001E8004FF0FF3000F074B9ADF1080C6DE904CEA2
:1001F80000F006F8DDF804E0DDE9022304B07047FA
:100208002DE9F047089D04468E46002B4DD18A42C1
:10021800944669D9B2FA82F252B101FA02F3C2F1F4
:10022800200120FA01F10CFA02FC41EA030E944085
:100238004FEA1C48210CBEFBF8F61FFA8CF708FBA6
:1002480016E341EA034306FB07F199420AD91CEB7E
:10025800030306F1FF3080F01F81994240F21C81B0
:10026800023E63445B1AA4B2B3FBF8F008FB1033F8
:1002780044EA034400FB07F7A7420AD91CEB04042D
:1002880000F1FF3380F00A81A74240F207816444FD
:10029800023840EA0640E41B00261DB1D440002382
:1002A800C5E900433146BDE8F0878B4209D9002DE6
:1002B80000F0EF800026C5E9000130463146BDE870
:1002C800F087B3FA83F6002E4AD18B4202D38242DA
:1002D80000F2F980841A61EB030301209E46002D89
:1002E800E0D0C5E9004EDDE702B9FFDEB2FA82F2DE
:1002F800002A40F09280A1EB0C014FEA1C471FFA3C
:100308008CFE0126200CB1FBF7F307FB131140EA22
:1003180001410EFB03F0884208D91CEB010103F1EF
:10032800FF3802D2884200F2CB804346091AA4B2B1
:10033800B1FBF7F007FB101144EA01440EFB00FE85
:10034800A64508D91CEB040400F1FF3102D2A645EA
:1003580000F2BB800846A4EB0E0440EA03409CE789
:10036800C6F12007B34022FA07FC4CEA030C20FA36
:1003780007F401FA06F31C43F9404FEA1C4900FA56
:1003880006F3B1FBF9F8200C1FFA8CFE09FB1811D3
:1003980040EA014108FB0EF0884202FA06F20BD946
:1003A8001CEB010108F1FF3A80F08880884240F296
:1003B8008580A8F102086144091AA4B2B1FBF9F0DA
:1003C80009FB101144EA014100FB0EFE8E4508D9D5
:1003D8001CEB010100F1FF346CD28E456AD902385A
:1003E800614440EA0840A0FB0294A1EB0E01A1423F
:1003F800C846A64656D353D05DB1B3EB080261EBAD
:100408000E0101FA07F722FA06F3F1401F43C5E986
:10041800007100263146BDE8F087C2F12003D840BC
:100428000CFA02FC21FA03F3914001434FEA1C47FE
:100438001FFA8CFEB3FBF7F007FB10360B0C43EAF0
:10044800064300FB0EF69E4204FA02F408D91CEBA0
:10045800030300F1FF382FD29E422DD9023863449E
:100468009B1B89B2B3FBF7F607FB163341EA03413E
:1004780006FB0EF38B4208D91CEB010106F1FF388D
:1004880016D28B4214D9023E6144C91A46EA004684
:1004980038E72E46284605E70646E3E61846F8E616
:1004A8004B45A9D2B9EB020864EB0C0E0138A3E75F
:1004B8004646EAE7204694E74046D1E7D0467BE740
:1004C800023B614432E7304609E76444023842E7B8
:1004D800704700BF70B50D4E0D4D761BB61006D097
:1004E800002455F8043B01349847A642F9D1094E37
:1004F800094D761B00F018FEB61006D0002455F8FA
:10050800043B01349847A642F9D170BD6411000834
:10051800641100086C11000864110008024B13B143
:10052800024800F005B870470000000045050008C3
:10053800002301461A46184600F01AB838B5084B89
:10054800084D5B1B9C1007D0043B1D44013C55F82B
:1005580004399847002CF9D1BDE8384000F0EABDCD
:10056800701100086C110008704700BF704700BF89
:100578002DE9F047DFF880A00646DAF80000984633
:100588000F469146FFF7F0FF1A4B1B68D3F8484116
:1005980024B365681F2D26DC5EB96B1C0235DAF8BA
:1005A8000000636044F82570FFF7E0FF0020BDE815
:1005B800F08704EB85010123C1F88890D4F88821DD
:1005C800AB401A43022EC4F88821C1F80881E4D14F
:1005D800D4F88C211343C4F88C31DEE703F5A674F4
:1005E800C3F84841D5E7DAF80000FFF7BFFF4FF03E
:1005F800FF30DCE74811000828040020DFF834D079
:100608000D480E490E4A002302E0D458C450043362
:10061800C4188C42F9D30B4A0B4C002301E0136039
:100628000432A242FBD300F0F3F8FFF753FF00F0C7
:100638006BF87047000002200000002038040020FA
:1006480070110008380400205C040020FEE7000058
:1006580010B5002394B0CDE90A33CDE90C33CDE9C8
:100668000233CDE90433264900930693086C254AE2
:1006780040F080500864096C01F0805100910099A5
:100688000193136843F44043136013689FED167B8E
:1006980003F44043022101934FF480000C23CDE979
:1006A8000E106022109308A804238DED087BCDE975
:1006B8001121019C139300F081FA08B172B6FEE78C
:1006C8009FED0B7B8DED027B9FED0B7B034603219A
:1006D80002A88DED047B069300F088FC08B172B681
:1006E800FEE714B010BD00BF0100000000000100CB
:1006F8000F000000020000000000000000100000D1
:10070800003802400070004000B58BB000F0AEF831
:10071800FFF79EFF0021CDE90411CDE906111B4B1F
:1007280001910891186B40F004001863186B00F0F1
:100738000400019001980291186B40F08000186342
:10074800186B00F08000029002980391196B104812
:100758000122114319631B6B13404FF4005103939B
:10076800039B00F01DFA4FF400520123CDE9042346
:1007780007480122002304A9CDE9062300F01EF949
:1007880000F008F800F008F8FCE700BF0038024065
:1007980000080240704700BF08B54FF4967000F09B
:1007A80091F8BDE8084002484FF4005100F0FCB948
:1007B8000008024082B00C4B002100915A6C42F4B0
:1007C80080425A645A6C02F480420092009A019165
:1007D8001A6C42F080521A641B6C03F08053019328
:1007E800019B02B0704700BF00380240FEE700BF1F
:1007F800FEE700BFFEE700BFFEE700BFFEE700BF61
:10080800704700BF704700BF704700BF00F048B88E
:10081800034AD2F8883043F47003C2F8883070472E
:1008280000ED00E038B50E4A0E4B12781B680546FD
:100838004FF47A70B0FBF2F0B3FBF0F000F0A4F8DC
:1008480008B90F2D01D9012038BD044602462946B2
:100858004FF0FF3000F05AF8034B20461D6038BDBA
:10086800300400202C0400203404002008B50B4B71
:100878001A6842F400721A601A6842F480621A60B8
:100888001A6842F480721A60032000F02DF80F20D5
:10089800FFF7C8FFFFF78EFF002008BD003C0240AD
:1008A800034A044B11681B780B441360704700BF60
:1008B8005804002030040020014B1868704700BF1E
:1008C8005804002038B50446FFF7F6FF631C0546B8
:1008D80002D0044B1B781C44FFF7EEFF431BA342D6
:1008E800FAD338BD300400200749CA6803024FF61E
:1008F800FF0003F4E0630240134343F0BF6343F493
:100908000033CB60704700BF00ED00E01C4BDB6894
:10091800C3F3022300B5C3F1070EBEF1040F03F1C0
:10092800040C28BF4FF0040EBCF1060F1BD9033B83
:100938004FF0FF3C0CFA03FC22EA0C024FF0FF3C9C
:100948000CFA0EFC21EA0C019940002841EA020148
:100958000CDB00F16040090100F56140C9B280F884
:1009680000135DF804FB00221346E7E7054B00F08F
:100978000F0009010344C9B219765DF804FB00BFF2
:1009880000ED00E0FCEC00E00138B0F1807F10D20F
:1009980010B44FF0E023084C58614FF0F00C84F885
:1009A80023C00022072110469A615DF8044B1961A3
:1009B80070470120704700BF00ED00E02DE9F04FBF
:1009C80000220C68704E85B013464FF0010A894624
:1009D80004E00133102B02F1020278D00AFA03F185
:1009E80001EA040BA143F4D1D9F804C00CF00301C7
:1009F8004D1E012D6ED9032940F0AE809140CD43A4
:100A080007683D4029431CF4403F0160E1D05F4D39
:100A180000210391696C41F480416964696C01F4B7
:100A280080410391039923F0030101F1804101F50D
:100A38009C3103F00307D1F808E0BF000F25BD4043
:100A48002EEA0508524DA84217D005F58065A84240
:100A580000F086804F4DA84200F087804E4DA84296
:100A680000F08A804D4DA8420CBF4FF0040E4FF0A5
:100A7800070E0EFA07F748EA0708C1F80880316838
:100A88006FEA0B071CF4803F0CBF39404BEA0101A9
:100A9800316075681CF4003F0CBF3D404BEA05050A
:100AA8007560B5681CF4801F0CBF3D404BEA050516
:100AB800B560F1681CF4001F03F101030CBF394055
:100AC8004BEA0101102BF16002F1020286D105B058
:100AD800BDE8F08FD9F80C50876805FA02F80325AD
:100AE80005FA02FE27EA0E0748EA07078760476803
:100AF8006FEA0E0527EA0B0ECCF300179F4047EA72
:100B08000E074760C76807EA050ED9F808709740CE
:100B180047EA0E070229C76001FA02F17FF470AFB5
:100B28004FEAD30E00EB8E0E03F00708DEF82070B4
:100B38000097D9F810704FEA880807FA08F7019764
:100B48000F2707FA08F8009F27EA0808019F47EAD5
:100B58000807CEF8207053E703259540ED43D1E709
:100B68000AFA07F748EA070887E74FF0020E0EFA75
:100B780007F748EA070880E74FF0030E0EFA07F771
:100B880048EA070879E700BF003C01400038024006
:100B98000000024000080240000C02400010024021
:100BA80002B9090481617047436901EA030221EA35
:100BB800030141EA02418161704700BF002800F04B
:100BC800A2812DE9F0410368DD0782B004462FD5E4
:100BD8009E498A6802F00C02042A00F0ED808A68B7
:100BE80002F00C02082A00F0E3806368B3F5803F46
:100BF80000F0EC80B3F5A02F00F07581934D2A68C2
:100C080022F480322A602A6822F480222A60002B8B
:100C180040F0E180FFF750FE064605E0FFF74CFE86
:100C2800801B642800F201812B689B03F6D423689B
:100C38009F0728D5854A916811F00C0F00F0908025
:100C4800916801F00C01082900F08680E368002B08
:100C580000F00E817E4B7D4E01221A60FFF72CFEBC
:100C6800054605E0FFF728FE401B022800F2DD805C
:100C780033689807F6D53368226923F0F80343EA06
:100C8800C203336023681A0751D458072FD56F4A17
:100C9800136C13F080537FD000256E4E3368D9054E
:100CA80040F1B380A368012B00F0C380052B00F04E
:100CB8002C81664E326F22F001023267326F22F0C9
:100CC80004023267002B40F0B980FFF7F5FD41F2CE
:100CD8008838074605E0FFF7EFFDC01B404500F2E6
:100CE800A480336F9807F6D4002D40F00681A069E0
:100CF800C8B1564DAB6803F00C03082B00F0C9804F
:100D0800534B002202281A6600F00981FFF7D4FD30
:100D1800044605E0FFF7D0FD001B022800F285809D
:100D28002B689B01F6D4002002B0BDE8F08163690E
:100D38000BB3474B454E0122C3F8802EFFF7BCFD8D
:100D4800054604E0FFF7B8FD401B02286DD8736F15
:100D58009B07F7D5236898E7526856023FF576AFA8
:100D68003A4A1268950744D5E268012A41D0012021
:100D780002B0BDE8F081364A344EC2F8803EFFF733
:100D88009BFD054604E0FFF797FD401B02284CD861
:100D9800736F9F07F7D4DDE70193136C43F080531B
:100DA8001364136C03F080530193019B012574E7CE
:100DB8004A6850027FF519AF244A126891037FF5FB
:100DC80037AF6268002A7FF433AFD0E71F4A136851
:100DD80043F480331360FFF76FFD1C4E054604E0B3
:100DE800FFF76AFD401B64281FD833689A03F7D5BC
:100DF8001DE7164920690A6822F0F80242EAC00293
:100E08000A601A077FF541AF91E7336843F48073AE
:100E18003360FFF751FD07463368DA053FF542AF07
:100E2800FFF74AFDC01B0228F6D9032002B0BDE82F
:100E3800F081064A136F43F001031367FFF73CFD87
:100E4800024F064641F288380BE000BF00380240E6
:100E58000000474200700040FFF72EFD801B404510
:100E6800E3D83B6F9B07F7D5002D3FF440AF44E034
:100E7800424A434E1360FFF71FFD054604E0FFF7A3
:100E88001BFD401B0228D0D833689907F7D4236884
:100E9800F9E601283FF448AF6B68E26903F4800182
:100EA80091427FF464AF226A03F03F0191427FF4DC
:100EB8005EAF616A47F6C0721A40B2EB811F7FF4D9
:100EC80056AFA26A520803F44031013AB1EB024F1F
:100ED8007FF44DAFE26A03F07063B3EB026F14BFA7
:100EE8000120002020E7264B1A6842F480221A606D
:100EF8001A6842F480321A606DE7214A136C23F0B5
:100F080080531364F3E6012070471D4B1A6F42F0BB
:100F180004021A671A6F42F001021A678EE7FFF798
:100F2800CBFC064605E0FFF7C7FC801B02283FF60E
:100F38007CAF2B689901F6D4D4E90731626A0B4378
:100F480043EA8213D4E90A21520843EA0163013AC9
:100F58000A4943EA024301226B600A66FFF7ACFCC8
:100F6800074D044605E0FFF7A7FC001B02283FF6E3
:100F78005CAF2B689A01F6D5D5E600BF0000474262
:100F880000380240164908B58B6803F00C03042B9F
:100F98001BD0082B17D14A684B68496813F48003A3
:100FA80002F03F0213D10F48C1F38811A1FB0001E1
:100FB800FFF70EF90A4B5B68C3F3014301335B008B
:100FC800B0FBF3F008BD074808BD074808BD064850
:100FD800C1F388110023A1FB0001FFF7F9F8E9E745
:100FE800003802400024F40040787D01002800F019
:100FF8008780484A136803F007038B422DE9F041C4
:101008000D46044609D2CBB21370136803F00703E8
:101018008B4202D00120BDE8F0812368980714D5DF
:10102800590704D53C498A6842F4E0528A601A0795
:1010380004D539498A6842F460428A603649A06812
:101048008A6822F0F00202438A60DF0721D56268CD
:10105800012A57D0931E012B2F4B1B684DD9990796
:10106800D8D52D4EB36823F003031343B360FFF7BD
:1010780023FC41F28838074604E0FFF71DFCC01B3B
:10108800404544D8B368626803F00C03B3EB820FA1
:10109800F3D1204A136803F00703AB4206D9EBB239
:1010A8001370136803F00703AB42B3D123685A07E0
:1010B80006D51949E0688A6822F4E05202438A603A
:1010C8001B0707D5144A2169936823F4604343EA50
:1010D800C1039360FFF756FF0F4A104C92681049FE
:1010E800C2F303120346A25C0E48D34000680B60AB
:1010F800FFF798FB0020BDE8F0819801B1D489E79B
:1011080001207047044B1B689E03AAD482E7032082
:1011180081E700BF003C0240003802404C11000843
:101128002C04002034040020F8B500BFF8BC08BC2B
:101138009E467047F8B500BFF8BC08BC9E4670478D
:10114800000000200000000000000000010203046D
:041158000607080975
:08115C00ACF0FF7F0100000070
:0811640025050008BD0100088B
:04116C0099010008DD
:1011700000000000EC02002054030020BC0300200B
:10118000000000000000000000000000000000005F
:10119000000000000000000000000000000000004F
:1011A000000000000000000000000000000000003F
:1011B000000000000000000000000000000000002F
:1011C000000000000000000000000000000000001F
:1011D000000000000000000000000000000000000F
:1011E00000000000000000000000000000000000FF
:1011F00000000000000000000000000000000000EF
:1012000000000000000000000000000000000000DE
:1012100000000000000000000100000000000000CD
:101220000E33CDAB34126DE6ECDE05000B00000092
:1012300000000000000000000000000000000000AE
:10124000000000000000000000000000000000009E
:10125000000000000000000000000000000000008E
:10126000000000000000000000000000000000007E
:101590000000000000000000540400200024F400BB
:0815A000010000001000000032
:0400000508000605E4
:00000001FF
