:020000040800F2
:10000000000002204D0D00083506000839060008E2
:100010003D060008410600084506000800000000F3
:100020000000000000000000000000004906000879
:100030004D060008000000005106000855060008A3
:100040009D0D00089D0D00089D0D00089D0D0008E8
:100050009D0D00089D0D00089D0D00089D0D0008D8
:100060009D0D00089D0D00089D0D00089D0D0008C8
:100070009D0D00089D0D00089D0D00089D0D0008B8
:100080009D0D00089D0D00089D0D0008000000005A
:100090000000000000000000000000009D0D0008AE
:1000A0009D0D00089D0D00089D0D00089D0D000888
:1000B0009D0D00089D0D00089D0D00089D0D000878
:1000C0009D0D00089D0D00089D0D00089D0D000868
:1000D0009D0D00089D0D00089D0D0008000000000A
:1000E0009D0D00089D0D00089D0D000800000000FA
:1000F0000000000000000000000000009D0D00084E
:10010000000000009D0D00089D0D00089D0D0008D9
:1001100000000000000000000000000000000000DF
:100120009D0D00089D0D00089D0D00089D0D000807
:100130009D0D00080000000000000000000000000D
:100140000000000000000000000000009D0D0008FD
:100150009D0D00089D0D00089D0D00089D0D0008D7
:100160009D0D00089D0D000800000000000000002B
:10017000000000000000000000000000000000007F
:10018000000000009D0D00080000000000000000BD
:080190009D0D00089D0D000803
:1001980010B5054C237833B9044B13B10448AFF3B9
:1001A80000800123237010BD0C0000200000000017
:1001B800E80D000808B5034B1BB103490348AFF32A
:1001C800008008BD0000000010000020E80D0008B5
:1001D80053B94AB9002908BF00281CBF4FF0FF31A6
:1001E8004FF0FF3000F074B9ADF1080C6DE904CEA2
:1001F80000F006F8DDF804E0DDE9022304B07047FA
:100208002DE9F047089D04468E46002B4DD18A42C1
:10021800944669D9B2FA82F252B101FA02F3C2F1F4
:10022800200120FA01F10CFA02FC41EA030E944085
:100238004FEA1C48210CBEFBF8F61FFA8CF708FBA6
:1002480016E341EA034306FB07F199420AD91CEB7E
:10025800030306F1FF3080F01F81994240F21C81B0
:10026800023E63445B1AA4B2B3FBF8F008FB1033F8
:1002780044EA034400FB07F7A7420AD91CEB04042D
:1002880000F1FF3380F00A81A74240F207816444FD
:10029800023840EA0640E41B00261DB1D440002382
:1002A800C5E900433146BDE8F0878B4209D9002DE6
:1002B80000F0EF800026C5E9000130463146BDE870
:1002C800F087B3FA83F6002E4AD18B4202D38242DA
:1002D80000F2F980841A61EB030301209E46002D89
:1002E800E0D0C5E9004EDDE702B9FFDEB2FA82F2DE
:1002F800002A40F09280A1EB0C014FEA1C471FFA3C
:100308008CFE0126200CB1FBF7F307FB131140EA22
:1003180001410EFB03F0884208D91CEB010103F1EF
:10032800FF3802D2884200F2CB804346091AA4B2B1
:10033800B1FBF7F007FB101144EA01440EFB00FE85
:10034800A64508D91CEB040400F1FF3102D2A645EA
:1003580000F2BB800846A4EB0E0440EA03409CE789
:10036800C6F12007B34022FA07FC4CEA030C20FA36
:1003780007F401FA06F31C43F9404FEA1C4900FA56
:1003880006F3B1FBF9F8200C1FFA8CFE09FB1811D3
:1003980040EA014108FB0EF0884202FA06F20BD946
:1003A8001CEB010108F1FF3A80F08880884240F296
:1003B8008580A8F102086144091AA4B2B1FBF9F0DA
:1003C80009FB101144EA014100FB0EFE8E4508D9D5
:1003D8001CEB010100F1FF346CD28E456AD902385A
:1003E800614440EA0840A0FB0294A1EB0E01A1423F
:1003F800C846A64656D353D05DB1B3EB080261EBAD
:100408000E0101FA07F722FA06F3F1401F43C5E986
:10041800007100263146BDE8F087C2F12003D840BC
:100428000CFA02FC21FA03F3914001434FEA1C47FE
:100438001FFA8CFEB3FBF7F007FB10360B0C43EAF0
:10044800064300FB0EF69E4204FA02F408D91CEBA0
:10045800030300F1FF382FD29E422DD9023863449E
:100468009B1B89B2B3FBF7F607FB163341EA03413E
:1004780006FB0EF38B4208D91CEB010106F1FF388D
:1004880016D28B4214D9023E6144C91A46EA004684
:1004980038E72E46284605E70646E3E61846F8E616
:1004A8004B45A9D2B9EB020864EB0C0E0138A3E75F
:1004B8004646EAE7204694E74046D1E7D0467BE740
:1004C800023B614432E7304609E76444023842E7B8
:1004D800704700BF0000000010B5002394B0CDE9BC
:1004E8000A33CDE90C33CDE90233CDE9043326498B
:1004F80000930693086C254A40F080500864096C04
:1005080001F08051009100990193136843F440432E
:10051800136013689FED167B03F440430221019397
:100528004FF480000C23CDE90E106022109308A828
:1005380004238DED087BCDE91121019C139300F074
:100548004BF908B172B6FEE79FED0B7B8DED027B90
:100558009FED0B7B0346032102A88DED047B0693D8
:1005680000F052FB08B172B6FEE714B010BD00BF30
:1005780001000000000001000F0000000200000060
:100588000000000000100000003802400070004029
:1005980000B585B000F08AF8FFF79EFF124B0022E5
:1005A8000192196B41F004011963196B01F0040100
:1005B800019101990292196B41F080011963196B3D
:1005C80001F080010291029903921A6B42F0010234
:1005D8001A631B6B03F001030393039B00F006F8F7
:1005E80000F006F8FCE700BF00380240704700BF83
:1005F800704700BF82B00C4B002100915A6C42F446
:1006080080425A645A6C02F480420092009A019126
:100618001A6C42F080521A641B6C03F080530193E9
:10062800019B02B0704700BF00380240FEE700BFE0
:10063800FEE700BFFEE700BFFEE700BFFEE700BF22
:10064800704700BF704700BF704700BF00F048B850
:10065800034AD2F8883043F47003C2F888307047F0
:1006680000ED00E038B50E4A0E4B12781B680546BF
:100678004FF47A70B0FBF2F0B3FBF0F000F092F8B0
:1006880008B90F2D01D9012038BD04460246294674
:100698004FF0FF3000F048F8034B20461D6038BD8E
:1006A80004000020000000200800002008B50B4BC3
:1006B8001A6842F400721A601A6842F480621A607A
:1006C8001A6842F480721A60032000F01BF80F20A9
:1006D800FFF7C8FFFFF78EFF002008BD003C02406F
:1006E800034A044B11681B780B441360704700BF22
:1006F8002800002004000020014B1868704700BF44
:10070800280000200749CA6803024FF6FF0003F4D7
:10071800E0630240134343F0BF6343F40033CB600C
:10072800704700BF00ED00E01C4BDB68C3F30223F9
:1007380000B5C3F1070EBEF1040F03F1040C28BF86
:100748004FF0040EBCF1060F1BD9033B4FF0FF3CE2
:100758000CFA03FC22EA0C024FF0FF3C0CFA0EFCE8
:1007680021EA0C019940002841EA02010CDB00F162
:100778006040090100F56140C9B280F800135DF8D6
:1007880004FB00221346E7E7054B00F00F000901C0
:100798000344C9B219765DF804FB00BF00ED00E020
:1007A800FCEC00E00138B0F1807F10D210B44FF0BB
:1007B800E023084C58614FF0F00C84F823C0002265
:1007C800072110469A615DF8044B196170470120B2
:1007D800704700BF00ED00E0002800F0A2812DE97D
:1007E800F0410368DD0782B004462FD59E498A6828
:1007F80002F00C02042A00F0ED808A6802F00C0274
:10080800082A00F0E3806368B3F5803F00F0EC80CD
:10081800B3F5A02F00F07581934D2A6822F4803239
:100828002A602A6822F480222A60002B40F0E180A6
:10083800FFF762FF064605E0FFF75EFF801B6428AE
:1008480000F201812B689B03F6D423689F0728D503
:10085800854A916811F00C0F00F09080916801F0C2
:100868000C01082900F08680E368002B00F00E8157
:100878007E4B7D4E01221A60FFF73EFF054605E0DC
:10088800FFF73AFF401B022800F2DD803368980723
:10089800F6D53368226923F0F80343EAC2033360CC
:1008A80023681A0751D458072FD56F4A136C13F0D1
:1008B80080537FD000256E4E3368D90540F1B38050
:1008C800A368012B00F0C380052B00F02C81664E35
:1008D800326F22F001023267326F22F0040232676F
:1008E800002B40F0B980FFF707FF41F28838074630
:1008F80005E0FFF701FFC01B404500F2A480336FFD
:100908009807F6D4002D40F00681A069C8B1564D6D
:10091800AB6803F00C03082B00F0C980534B00228E
:1009280002281A6600F00981FFF7E6FE044605E092
:10093800FFF7E2FE001B022800F285802B689B016E
:10094800F6D4002002B0BDE8F08163690BB3474BD1
:10095800454E0122C3F8802EFFF7CEFE054604E07F
:10096800FFF7CAFE401B02286DD8736F9B07F7D5A7
:10097800236898E7526856023FF576AF3A4A1268FC
:10098800950744D5E268012A41D0012002B0BDE8AC
:10099800F081364A344EC2F8803EFFF7ADFE054678
:1009A80004E0FFF7A9FE401B02284CD8736F9F078D
:1009B800F7D4DDE70193136C43F080531364136C91
:1009C80003F080530193019B012574E74A685002A4
:1009D8007FF519AF244A126891037FF537AF626833
:1009E800002A7FF433AFD0E71F4A136843F48033FB
:1009F8001360FFF781FE1C4E054604E0FFF77CFEFE
:100A0800401B64281FD833689A03F7D51DE7164999
:100A180020690A6822F0F80242EAC0020A601A074E
:100A28007FF541AF91E7336843F480733360FFF794
:100A380063FE07463368DA053FF542AFFFF75CFE11
:100A4800C01B0228F6D9032002B0BDE8F081064A8F
:100A5800136F43F001031367FFF74EFE024F06467C
:100A680041F288380BE000BF0038024000004742DE
:100A780000700040FFF740FE801B4045E3D83B6F05
:100A88009B07F7D5002D3FF440AF44E0424A434E60
:100A98001360FFF731FE054604E0FFF72DFE401B0B
:100AA8000228D0D833689907F7D42368F9E60128D3
:100AB8003FF448AF6B68E26903F4800191427FF428
:100AC80064AF226A03F03F0191427FF45EAF616A2E
:100AD80047F6C0721A40B2EB811F7FF456AFA26A84
:100AE800520803F44031013AB1EB024F7FF44DAFA5
:100AF800E26A03F07063B3EB026F14BF01200020B9
:100B080020E7264B1A6842F480221A601A6842F4D9
:100B180080321A606DE7214A136C23F08053136406
:100B2800F3E6012070471D4B1A6F42F004021A6762
:100B38001A6F42F001021A678EE7FFF7DDFD0646DD
:100B480005E0FFF7D9FD801B02283FF67CAF2B6834
:100B58009901F6D4D4E90731626A0B4343EA821358
:100B6800D4E90A21520843EA0163013A0A4943EAEF
:100B7800024301226B600A66FFF7BEFD074D04467B
:100B880005E0FFF7B9FD001B02283FF65CAF2B68B4
:100B98009A01F6D5D5E600BF00004742003802406A
:100BA800164908B58B6803F00C03042B1BD0082BDF
:100BB80017D14A684B68496813F4800302F03F0272
:100BC80013D10F48C1F38811A1FB0001FFF700FB07
:100BD8000A4B5B68C3F3014301335B00B0FBF3F0DE
:100BE80008BD074808BD074808BD0648C1F3881175
:100BF8000023A1FB0001FFF7EBFAE9E70038024008
:100C08000024F40040787D01002800F08780484ADD
:100C1800136803F007038B422DE9F0410D460446A3
:100C280009D2CBB21370136803F007038B4202D0CA
:100C38000120BDE8F0812368980714D5590704D529
:100C48003C498A6842F4E0528A601A0704D5394957
:100C58008A6842F460428A603649A0688A6822F04D
:100C6800F00202438A60DF0721D56268012A57D063
:100C7800931E012B2F4B1B684DD99907D8D52D4EA4
:100C8800B36823F003031343B360FFF735FD41F264
:100C98008838074604E0FFF72FFDC01B404544D8BD
:100CA800B368626803F00C03B3EB820FF3D1204AF8
:100CB800136803F00703AB4206D9EBB2137013684D
:100CC80003F00703AB42B3D123685A0706D5194985
:100CD800E0688A6822F4E05202438A601B0707D55D
:100CE800144A2169936823F4604343EAC10393607B
:100CF800FFF756FF0F4A104C92681049C2F30312CF
:100D08000346A25C0E48D34000680B60FFF7AAFCBC
:100D18000020BDE8F0819801B1D489E7012070472F
:100D2800044B1B689E03AAD482E7032081E700BF17
:100D3800003C024000380240000E0008000000207D
:100D480008000020DFF834D00D480E490E4A002371
:100D580002E0D458C4500433C4188C42F9D30B4A67
:100D68000B4C002301E013600432A242FBD3FFF7CF
:100D78006FFC00F011F8FFF70BFC70470000022031
:100D8800000000200C000020200E00080C000020AD
:100D98002C000020FEE7000070B50D4D0D4C641BC3
:100DA800A4100026A64209D10B4D0C4C00F018F8EF
:100DB800641BA4100026A64205D170BD55F8043B5B
:100DC80098470136EEE755F8043B98470136F2E7B5
:100DD800180E0008180E0008180E00081C0E00084F
:100DE800F8B500BFF8BC08BC9E467047F8B500BF10
:080DF800F8BC08BC9E467047E0
:100E000000000000000000000102030406070809BA
:080E1000F8F3FF7F0100000070
:040E1800BD01000810
:040E1C009901000830
:0C0E20000024F40001000000100000009D
:0400000508000D4D95
:00000001FF
